:100000000826002031350000237B00000535000064
:100010000535000005350000053500000000000032
:10002000000000000000000000000000192E000089
:100030000535000000000000952D0000053500008A
:10004000012F0000012F0000012F0000012F0000F0
:10005000012F0000012F0000012F0000012F0000E0
:10006000012F0000012F0000012F0000012F0000D0
:10007000012F0000012F0000012F0000012F0000C0
:10008000012F0000012F0000012F0000012F0000B0
:10009000012F0000012F0000012F0000012F0000A0
:1000A000012F0000012F0000012F0000012F000090
:1000B000012F0000012F0000012F0000012F000080
:1000C000012F0000012F0000012F0000012F000070
:1000D000012F0000012F0000012F0000012F000060
:1000E000012F0000012F0000012F0000012F000050
:1000F000012F0000012F0000012F0000012F000040
:1001000053B94AB9002908BF00281CBF4FF0FF317E
:100110004FF0FF3000F00CB8ADF1080C6DE904CEE3
:1001200000F008F8DDF804E0DDE9022304B07047D0
:10013000704700BF2DE9F04786468C460846089E6A
:10014000154674461946002B40F0C2808542B2FA2B
:1001500082F245D94AB1C2F1200300FA02FC2EFA1C
:1001600003F3954043EA0C0C94404FEA154EA8B2B5
:10017000BCFBFEF8230C0EFB18CC08FB00F943EA8D
:100180000C43994528D9EB1808F1FF3704D299455B
:1001900002D9A8F102072B44A3EB0903A4B2B3FBD5
:1001A000FEFC0EFB1C330CFB00F044EA0344A042AF
:1001B00014D92C190CF1FF3304D2A04202D9ACF1AE
:1001C00002032C44241A43EA07401EB1D440002302
:1001D00034607360BDE8F0874746DDE76346F1E7CA
:1001E00092BB431B01214FEA154EAFB2B3FBFEFC9D
:1001F000200C0EFB1C330CFB07F840EA0343984528
:1002000062D9EB180CF1FF3004D2984502D9ACF159
:1002100002002B44A3EB0803A4B2B3FBFEFC0EFBCD
:100220001C330CFB07F744EA0344A7424ED92C19B0
:100230000CF1FF3304D2A74202D9ACF102032C44E3
:10024000E41B43EA0040C0E7C2F1200320FA03F1B7
:10025000954090402EFA03F303434FEA154EAFB298
:10026000B1FBFEFC0EFB1C10190C0CFB07F841EA5D
:100270000041884504FA02F422D969180CF1FF30D4
:1002800004D2884502D9ACF102002944A1EB08014F
:100290009BB2B1FBFEFC0EFB1C110CFB07F743EA03
:1002A00001439F420ED9EB180CF1FF3104D29F425B
:1002B00002D9ACF102012B44DB1B41EA004192E779
:1002C0006046E3E76146F7E76046A3E76346B7E7C2
:1002D000834206D916B9002108467BE7C6E900E04B
:1002E000F9E7B3FA83F78FB9834201D3724508D88F
:1002F000BEEB020460EB030301209C461EB9002103
:1003000068E73846FAE7C6E9004CF8E7C7F1200C81
:10031000BB4022FA0CF41C432EFA0CF120FA0CF329
:10032000B84001434FEA14490EFA07F5B3FBF9F858
:100330001FFA84FE09FB18300B0C08FB0EFA43EA87
:1003400000439A4502FA07F240D9E31808F1FF305A
:1003500004D29A4502D9A8F102002344A3EB0A0370
:1003600089B2B3FBF9F809FB183308FB0EFE41EA2A
:1003700003418E452CD9611808F1FF3304D28E4514
:1003800002D9A8F10203214443EA0040A0FB0298ED
:10039000A1EB0E014145CE46434602D306D14D4561
:1003A00004D2B9EB020E68EB04030138002EA6D08C
:1003B000B5EB0E0261EB030101FA0CFC22FA07F324
:1003C0004CEA0303F940C6E9003198E74046C5E727
:1003D0004346D9E7034613F8012B002AFBD1181A2C
:1003E00001387047000000002DE9F04F9FB08246B1
:1003F000039116461C460025307810B9284600F0B7
:1004000085BD731C2528069306D00399D047002884
:10041000C0F27C8501351BE21822002110A807F0EC
:10042000FBFF7378252B00F0BA800023711C9846DF
:100430009E469C4618460F4611F8012B2B2A00F0C9
:10044000DD8000F2D480202A00F0DB80232A00F037
:10045000DB802BB19DF8483043F040038DF84830E5
:10046000B8F1000F05D09DF8483043F020038DF817
:100470004830BEF1000F05D09DF8483043F010031E
:100480008DF84830BCF1000F05D09DF8483043F09E
:1004900008038DF8483028B19DF8483043F0040334
:1004A0008DF848309DF8483003F04401442903D1C9
:1004B0006FF386138DF848309DF848300E9743F05F
:1004C00080032A2A8DF8483040F0A3809DF84930F7
:1004D00043F001038DF849307B1C1A782E2A9DF8D1
:1004E00049200CBF0121002161F341028DF8492010
:1004F0000CD15A1C0E925A782A2A40F09A809DF804
:10050000492042F004028DF8492002331A786C2AFF
:1005100000F0BB8000F29D80682A00F0A3806A2A68
:1005200000F0BC804C2A00F0C18013F8012B069328
:10053000782A8DF84B2000F201816D2A00F2C380E9
:10054000692A00F2FB80572A00F2DA80412A04D09F
:10055000A2F14503022B00F2F1809DF84A3002F02F
:10056000DF020421A2F1410761F302037A429DF800
:1005700049108DF84A307A4162F3C7110A068DF8A6
:100580004910CBB200F1198103F07802182A40F02B
:1005900003816FF3C6038DF849300023F2E0B21CEB
:1005A00006928DF84B309DF84930D90740F107810C
:1005B00054F8042B0492002A08DA9DF8482042F0EF
:1005C00004028DF84820049A524204925A0740F1DE
:1005D000FE8054F8047B002F80F2FD809DF84930A6
:1005E0006FF341038DF849304FF0FF37F3E02D2AC8
:1005F0000DD0302A7FF42DAF01231CE74FF0010C02
:1006000019E74FF0010E16E74FF0010813E701203C
:1006100011E70EA801F030FB0E9BBB423FF45DAF2B
:100620009DF848201390C00F60F341028DF84820D8
:1006300053E70EA801F020FB9DF848301490C3F357
:10064000400242EAD07262F341038DF848300E9BBB
:100650005CE7742A26D07A2A7FF467AF9DF8492098
:1006600006210CE05A78682A9DF8492006D101211C
:1006700061F3C6028DF84920023356E7022161F387
:10068000C6028DF8492001334FE75A786C2A9DF84D
:10069000492001D10421EBE70321F0E79DF849202F
:1006A0000521ECE79DF849200721E8E7BDF848203F
:1006B00022F4F04222F0020242F4804242F00202AE
:1006C000ADF84820DFE76E3AD3B201229A4040F2FB
:1006D00082431A429DF8493037D112F0240F5FD17E
:1006E000D1072BD59DF84A2003F07803A3F14000F1
:1006F000032161F3020243428DF84A20434141E065
:10070000A2F15801C9B2012000FA01F111F4624FBF
:100710007FF423AF40F6010319429DF849301AD106
:1007200011F4043F0AD09DF84A2060F3020203F05E
:100730007803402B8DF84A207FF42FAF9DF8483086
:1007400043F001038DF8483027E79DF84A20022145
:1007500061F30202EBE79DF84A10022003F07803F0
:1007600060F30201402B8DF84A1002BF9DF848103B
:1007700041F001018DF84810632A7FF40EAF003B71
:1007800018BF01239DF84820C2F340010B4363F3D7
:1007900041028DF8482006E713F0380FCED1FCE671
:1007A0009DF84A20032113F0780F61F302028DF8BF
:1007B0004A2014BF01230023E4E70123E2E79DF967
:1007C0004820002AB4BF139A4FF0FF32FDE69F077E
:1007D0007FF50AAF149F9DF84A200023CDE913331B
:1007E00002F00703042B9DF8493007D1980705D480
:1007F0009DF949100029ACBF06270D2702F007021A
:10080000012AC3F3C30333D1DA1E042A04D8DFE874
:1008100002F02146462121002268012B4FEAE271B5
:10082000CDE910211CD19DF94020D117CDE910212F
:1008300004349DF848200792910750D0069B0399F5
:100840003246504606F048FE0028C0F25F83054459
:10085000069ED1E554F8042BD117CDE91021E8E725
:10086000022BE5D111B242F3C032CDE91012DFE71D
:10087000022A24D1DA1E042A04D8DFE802F0181074
:1008800010181800012B54F8042B4FF0000114D05D
:10089000022BCDE91021CCD192B21092C9E70734D6
:1008A00024F00704F4E80201CDE91001C1E754F88F
:1008B000042B109200221192BBE7D2B2CDE7042A9A
:1008C00008D1073424F00704D4E900010834CDE945
:1008D0001001AEE7032AACD154F8042BDDE79DF8F4
:1008E0004BB0BBF1780FB3D8BBF1570F49D8BBF170
:1008F000250F00F09180BBF1240FA9D9BBF1410F66
:1009000003D0ABF14503022BA2D8DDE91013002B75
:10091000C0F23781079A160700F13681C2F3001939
:100920004FEA4919C3F30A50C3F31303002840F0F8
:100930002E8151EA030614BF01260026DB0243EA9A
:100940005153C902BBF1460F40EA010E43EAE07C75
:1009500008BF4FF0660B5EEA0C0CCDE90C1300F0FB
:100960009D81002E40F04A810D9B43F00043A0F290
:10097000FE380D930020DDE90C1306464FF0050C00
:1009800056E1ABF1580120293FF662AF01A050F8C3
:1009900021F000BF210B00005108000051080000A9
:1009A00051080000510800005108000051080000E3
:1009B00051080000510800000B0900005108000018
:1009C000A50A0000B90A00000B0900000B0900008D
:1009D0000B09000051080000B90A0000510800008E
:1009E0005108000051080000510800005B0B000096
:1009F000210B0000270B00005108000051080000E7
:100A00001F0A000051080000210B000051080000DF
:100A100051080000210B000003995846F6E4002F0E
:100A2000109E3BDB3946304607F0FEFC002E3FF4BB
:100A30000FAF3718BB1B4FF000099DF84A2012F08A
:100A40001001059100F05782023312F04002DDF8E8
:100A50004C80089218BF149ACDF81C80434418BFEC
:100A60009B18049A002A40F36182D31A04939DF8DC
:100A700048305807C3F3800B00F15882590640F103
:100A80004882B9F1000F07D003994846D0470028A3
:100A9000C0F23C820135D94630233BE23046FFF7B5
:100AA00099FCC6E7109B8DF85C304FF000090DF102
:100AB0005D0717AE0123C0E7079B1A0758BFC3F3B2
:100AC0000019DDE9102354BF4FEA49194FF02B09F3
:100AD000002B06DA524263EB4303CDE910234FF0BB
:100AE0002D090DF175030093DDE9100117AB12AA72
:100AF00001F0D8F80646002F0CDB9DF848200DF1D8
:100B000075039B1B6FF386129F428DF8482001D915
:100B1000FB1A1393002E3FF49BAE0DF175075BE0BB
:100B20004FF00009DDE71098002800F0DF810DF19B
:100B30007503009312AA17AB002101F0B3F8BDF8BA
:100B40004A3003F0EF0343F4F04343F0100306464A
:100B5000ADF84A304FF00009CDE7109A072B3FF669
:100B600077AEDFE803F00C04060C08080C0C1570D7
:100B70006EE615806CE6EB17C2E9005368E6156077
:100B800066E64FF02D09CDE64FF02B09CAE640F29C
:100B9000FF76B0422FD10BF101029F48D2B20B4336
:100BA000825C02F003021ED1012A0BBF4923692394
:100BB0004E216E210CBF462266228DF85C309DF8D6
:100BC00048308DF85D106FF386138DF85E208DF838
:100BD00048300DF15F0717AEBB1BB9F1000F3FF4B2
:100BE0002CAF013329E7012A15BF6E234E23612163
:100BF00041211A46E1E70026A0E6013849185B4189
:100C0000002BFADACDE90C13AEE6490841EAC371CC
:100C10005B08B3F1333F404608F10108F5D20CFB05
:100C200003FEA1FB0C1300F102087344013E0120F6
:100C300018F1020FE9DB08B1CDE90C13B8F1000F90
:100C4000DDE90C312DDCC8F10400A0F1200C08F125
:100C50001C08C34001FA08F821FA0CFCC1400BF053
:100C6000DF0043EA0803472843EA0C033AD1F01CAB
:100C700001DBB7422BDAABF10202002F5FFA82FBF5
:100C80007DDD9DF84800820607F1FF3777D43A1ED4
:100C900018BF0122059207F101082DE04FF000086E
:100CA00068E6023341F100010CA8CDE90C3106F0F1
:100CB000E4FBDDE90C3108F1FF380136DB1849416E
:100CC000002908F1FF38F9DACDE90C31B6E79DF8D3
:100CD00048209006A7EB06074FD43A1E18BF012202
:100CE000059204E00022BBF1660F0592D3D117EB09
:100CF00006084FF0660B44D4B8F1100FA8BF4FF0B0
:100D000010089FED437B8DED0E7B10200B90DDE9ED
:100D10000E02B8F1000F37D1C01842EB0103B3F156
:100D2000805F41D2CDE90C03079BBBF1660F03F056
:100D3000200340F0BA80002E41DC30218DF85C1099
:100D4000002B6BD1002F40F3B4812E238DF85D3042
:100D500086B17342BB42A8BF3B469DF84A1013932D
:100D6000002BA7EB0307D4BF0023012363F3451136
:100D70008DF84A100DF15E0839E00022B0E700223C
:100D800088E74FF00008BCE7400840EAC27052080C
:100D9000CDE90E020EA8CDE9083108F1FF3806F0C2
:100DA0006CFBDDE90831B2E7400840EAC3705B083C
:100DB000CDE90C030CA806F060FB0136B4E70DF199
:100DC0005C080B99002909DD0BA90CA8079306F014
:100DD0006CFB013E08F8010B079BF2D113969BB9FF
:100DE000002F40F364812E2108F8011B0026002FFC
:100DF0001DDD0B9B002B1ADD0BA90CA806F055FB83
:100E0000013F08F8010BF2E72E2308F8013BEDE75C
:100E100000000000000000088A9400002E238DF8D6
:100E20005D30002EA6D0002F93DC0DF15E08059BEF
:100E3000002B4ED1149747460BF0DF03452B23D1EF
:100E4000002EBABF76422D232B23632EC8BF642108
:100E50007B70D1BFBA1CB6FBF1F3FA1C03F1300072
:100E6000C8BF01FB13664FF00A01C8BFB87087F80E
:100E700000B0B6FBF1F3174603F1300001FB13633A
:100E8000303307F8020B5370139B002B2CDC149BA0
:100E9000002BD4BF002301239DF84A2063F3861260
:100EA00000238DF84A203B7095E60BA90CA8079308
:100EB00006F0FBFA079B8DF85C00302818BF06F19E
:100EC000FF3613B9002F40F3F4802E238DF85D30E8
:100ED00050E7474608F1FF3817F8013C302BF8D0AF
:100EE0002E2B08BF4746A7E70123D5E7724F81465F
:100EF0007E1F0523A1E5110748BF0133A5E518466C
:100F000009930399D0470028099B05DA1FB0BDE873
:100F1000F08F2023DDF810B05A46002A0BF1FF3B7A
:100F2000EDDC049BCDF810B02B449D1AB9F1000FF5
:100F300005D003994846D0470028E7DB0135089BD8
:100F4000002B79D09DF94930002B29DBDFF86C911B
:100F50003346187819F8002052079B4603F1010325
:100F60003FD49DF84A30AE1B98065E4407D44246F3
:100F7000002A08F1FF383BDC079B33449E1A9BF89C
:100F800000002E280AD10399D0470028BEDBB8F113
:100F9000000F06F1010631DC0BF1010B5D4638E074
:100FA000B14699F800007028C84609F1010913D12B
:100FB000AE1B149D46443544AB1B002B34DC039917
:100FC0003B464246504606F087FA00289EDB3044F6
:100FD000049E0546064465E00399D0470028E0DA00
:100FE00094E705930399D0470028059BB1DA8DE774
:100FF00003993020D0470028B9DA87E703993020D9
:10100000D04708F1FF38C0E70399D0470028FFF622
:101010007DAF287819F800305907A84605F1010579
:10102000F2D4A6EB0B06C4E703993020D047002882
:10103000FFF66CAF0136BFE79DF84A30DA0601D4FF
:101040001B0706D503993020D0470028FFF65EAF76
:101050000135059B3BB103999DF84B00D047002813
:10106000FFF654AF0135A84406E003993020D0477D
:101070000028FFF64BAF0135A8EB0503002BF4DC8D
:1010800003993B463246504606F026FA0028FFF602
:101090003DAF28449CE703992020D0470028FFF665
:1010A00035AF0135731B002BF5DCFFF7D1BB1E46B6
:1010B000BDE60DF15D08BAE62F8C00008B940000B0
:1010C00010B586B000F060F850B1224B05930223B2
:1010D00004932148002304AA4FF4825101F0DEF862
:1010E0001E4B0593022404941B48002304AA4FF4CA
:1010F000865101F0D3F8002000F094F8002820DA9F
:10110000174BCDE90443002304AA4FF4825112483F
:1011100001F0C4F800214FF4804005F0B3FB01203A
:1011200000F0ACF800280ADA0E4B05930223049372
:101130000948002304AA4FF4825101F0AFF806B029
:1011400010BD094BCDE90443002304AA4FF4865196
:10115000DDE700BFC88900009C860000EC89000024
:10116000068A0000508A0000298A000030B40A462E
:101170000446044883689D682146AC46492330BC38
:10118000604700BF0885000010B586B01F4806F014
:1011900099FF68B91E4B1F48059304AA02234FF418
:1011A0008251049305F0E0FF6FF0120006B010BD0D
:1011B0004FF0785469460320009405F0E5FF0028BD
:1011C0000CDA154B059302231248049304AA4FF43A
:1011D000825105F0C9FF6FF00400E7E769460B2074
:1011E000009405F0D1FF00284FF0020302DA0B4A09
:1011F0000592E9E70A4A0748CDE904324FF48651DF
:1012000004AA05F0B1FF0020D0E700BF0885000068
:10121000828A0000BC860000948A0000BE8A00001A
:10122000E88A00002DE9F04182B000F1100400AF1F
:101230000123E4B211250321381D3D717C71BB717E
:1012400005F095FF061E0FDAE84688B06A46094B9E
:10125000D461C2E90535042342F8103F06484FF433
:10126000015105F081FFC54630460837BD46BDE84F
:10127000F08100BF108B0000BC86000030B589B043
:101280000123C0F109008DF800308DF801004FF402
:101290007853002506216846ADF80250ADF80430B9
:1012A00005F065FF041E0CDA074B0793074802237D
:1012B00006AA4FF48251069305F056FF204609B066
:1012C00030BD2C46FAE700BF448B0000BC8600000E
:1012D0002DE9F04F91B08407009302F004030293CC
:1012E000C2F3C20303F10103DDF8689003920546DF
:1012F0000E46059340F0BA81041D30B1072909D884
:101300006FF01B0011B0BDE8F08F01F00706341D2F
:10131000C6F10806009B4FF00008591E4FF0040A62
:101320004FF0FF330193CDF810804746C346534634
:101330000DB1009820600598002800F3E8809848D7
:10134000009A824203D397488242C0F0E080039A19
:10135000A4EB050E92074FEA9E0000F103810F2FC8
:1013600000F2B180002D00F0058107F140020DEB85
:10137000020C019A0CF8200C0CF8102C0498013087
:101380000490E7E07A285DD84B280ED8472859D832
:1013900029282DD8252852D054D820287AD023386F
:1013A000D0F1000B4BEB000B74E04C382E2849D8E1
:1013B000DFE800F0704848484848484848484848EE
:1013C0004B484848484848484859484B4B59595950
:1013D000704B6D487048184B184848827F4B4848FE
:1013E0004B487F0000204FF0000B4FF0040A38E01C
:1013F0002A38C0B2012202FA00F010EA0E0F49D1D9
:1014000010F0625C2FD110EA020B43D06046013C21
:101410005444B4FBFAF40AFB04F4002D61D0A3EBAE
:10142000050CA4446645FFF46BAF002868D1042B7B
:1014300047D159F8043B2360043404232AE0019A7D
:10144000013A01924FF0000B24E011F8010C6C28D6
:1014500034D111F8023C00206C2B8346C5D14FF0EB
:10146000080A5346D3E709F1070929F007090734A9
:10147000F9E802AB24F0070435B106982044B042E5
:101480003FF63EAFC4E900AB08344FF0000B4FF01D
:10149000080A534611F8010F002878D0BBF1000F5D
:1014A0007FF470AF2528F5D1019B013301934FF0F4
:1014B000010B4FF0040AECE7584694E700208346FE
:1014C000A5E7082B02D06FF015001BE709F107090B
:1014D00029F00709B9EC027B84ED007B083408236E
:1014E000D8E768B9042B02D109F10409A4E7082B55
:1014F000E9D109F1070929F0070909F10809EDE720
:1015000005980138059059F8040B009010E7039AEC
:10151000900720D5A4EB050E4FEA9E004FF0010C7A
:10152000BEF5007FCFD20F2FCDD8F5B107F1400225
:101530000DEB020EC0B2019A0EF8200C0EF8102C22
:10154000BCF1000F3FF41AAF60F07F000EF8200CE2
:1015500008F101080137C5F10802043406924FF67C
:10156000DA7E97E74FF0000CDAE7BCF1000F01D00C
:101570000136EFE7029A0236002AEBD10098CDE956
:101580000631FEF727FFDDE906310644E2E7631B7B
:10159000B3F5806F97D23DB9A6F10804E018B1E623
:1015A000488400008C950000029A28609B082B70EC
:1015B0009DF81030C2B1EB7085F80280B8F1000FD1
:1015C00005D008A80022C5F1010C97420ED1C5F143
:1015D00001030DF120094FF0000A01930DF1300BCA
:1015E000574512D1601B8DE66B70E5E710F8013BA3
:1015F000190608D504EB0C0E764503F07F03FFF4C3
:101600007FAE04F8013B0132DFE7B8F1000F03D0F1
:1016100099F90020002A17DB029BD3B11AF80B209E
:1016200004F8012B0022019B981820448642FFF405
:1016300067AE99F8000004F8010B00990392204668
:1016400006F0DCFE039A14440AF1010A09F10109CB
:10165000C6E799F8002055F822300093029B45F820
:1016600022300098FEF7B6FE421CDCE76FF00D005A
:1016700048E600BF2DE9F04F95B000AF90F802B0FA
:10168000BB61BB6F7A62C3F3C00304463B618A4609
:1016900041B9457800780BEB80002044554517D8B8
:1016A000A0EB040AE3787B61BBF1000F02D0BB6FB3
:1016B000D80716D47B6953BB7B6A1BB1BA69514604
:1016C00020469847554628465437BD46BDE8F08F1A
:1016D000461C3046FEF77EFE013030440AF1010A16
:1016E000DCE723783B629B00FB603B6A6268FA613F
:1016F00004EB83097B6A002B40F0FE805546C84608
:1017000009EB0B0A0026D04551D1D94413E0BB6F39
:101710009907D1D523783B6299469B00FB606368AB
:10172000FB617B6A04EB8909002B7AD15546BBF13A
:10173000000F4FD15E46BB6F13F0050F7B6909EBBD
:10174000430ABB6F03F002030CBF4FF0020B4FF0D4
:10175000010B7B62D145B6D019F8021B19F8013C88
:1017600054F82380AA4B984502D3AA4B984538D306
:101770003B69002B42D0F86905F047FD00283DD0B9
:10178000E8468AB06A46A44B5361FB69C2E9063158
:101790004FF400731384A14B42F8103FA04800237C
:1017A0004FF4125100F07AFD023DC546D2E718F819
:1017B000013B54F82300FEF70DFEFB6F01303BB1F7
:1017C000D7F880309E423EBFFB6F23F816000136EB
:1017D000054498E7BB6F13F004061CBF7E6AD9442A
:1017E000A9E73B6923B1F86905F00FFD0028C7D1CF
:1017F000BB6FDA0705D4A5EB0B05ABE77B6A002BC3
:10180000A8D04046FEF7E6FDFB6F43B1D7F8803025
:101810009E423FBFFA6F431C22F816300136054442
:1018200098E7BBF1000F6DD0BB6F13F004066CD0CE
:10183000D846002607F140005A46494606F0DEFD2C
:101840007B695B007B607B69D94409EB4303BB6028
:10185000BB6F03F002033B60BB684B4557D1B96FC8
:101860006378B86F890706EB030254BF4FEA58014B
:101870000021C507D2B200F19A8010F0040F14BF06
:1018800040460020FB616270A070E170BA69F9689F
:101890007B6A20469847051EFFF615AF3B6A23700A
:1018A000FB6963707B69E3704146BA697B6A84F8BF
:1018B00002B007F140009847B0F10008C0F2A480E0
:1018C000FB68BA69AAEB0B01C91A7B684846C91ABA
:1018D0007B6A98470028C0F29980A84408EB00056D
:1018E0004FF0000B07F1300AB34562D30021BA690B
:1018F0007B6A08469847E6E65E464FF0000807F127
:10190000300099E75E46D8469AE7B04698E719F85E
:10191000021B3F4B19F8015C54F82500984202D392
:101920003C4B98421DD33B6923B1F86905F06DFC2F
:10193000002891D13B68FBB908F1280307F1280280
:1019400008F1010003EB020C07F1500353FA80F099
:1019500008F102080CF8101C5FFA88F800F8105C17
:101960007AE73B692BB1F86905F04FFC00287FF45A
:1019700073AFBB6FDB0709D506F1280307F1280217
:10198000711C9E1806F8205CCEB265E7BB6F580745
:101990007FF562AF08F1280307F1280208F1010181
:1019A00003EB020808F8105C5FFA81F854E70020A6
:1019B00068E71BF80A3087F82F3054F82390FB6F44
:1019C000FBB133F81B80BA697B6A012107F12F0054
:1019D000984700281ADB0544B8F1000F06D14846A5
:1019E000FEF7F8FC00F101081FFA88F8BA697B6A73
:1019F000414648469847002808DB05440BF1010B97
:101A000072E7D7F87C80DEE745465CE605465AE695
:101A1000488400008C950000768B000004000001D3
:101A2000C4860000014B1860704700BF0000002012
:101A300030B587B00025CDE903010446009503A920
:101A400005480595FEF7D0FCDDE904309842B8BFA3
:101A5000255407B030BD00BF597200002DE9F04792
:101A6000058B04462807904611D4022905F0070586
:101A700040F0CD80204605F026FC78B10138218B5E
:101A8000042811D8DFE800F0C3106D859500012906
:101A90000CBF45F0100545F02005258388F311881B
:101AA000BFF36F8FBDE8F08701F0070AAA4500F089
:101AB000A6800027B9463E46A368002B00F0BD80F3
:101AC00041F00801218388F31188BFF36F8FA1686B
:101AD000002900F0BB800D68002900F0B780D1F824
:101AE0000480334652462046C047002D76D02B68EE
:101AF00029461D46F0E701F007035A1F012A1BD8AB
:101B0000002221F00701062B276889B2C4E90022D0
:101B100009D13B4603E0628B013262831B68002BD4
:101B2000F9D141F002012183204605F0CCFB0028C9
:101B30007BD041F0200177E0042B0AD121F007018E
:101B400089B22183204605F0BEFB10B141F020018F
:101B50002183218B01F0070AAA4550D00027B946FE
:101B6000AAE7236921F0070141F00601062DD3F809
:101B7000009021832DD1B9F1000F40D041F0080130
:101B8000218388F31188BFF36F8F3A492046C847F5
:101B900029E021F00701236941F0040189B2042DF5
:101BA000D3F804902183E6D000273E464FF0040A84
:101BB00082E721F00701236941F0050189B2052D73
:101BC000D3F808902183D6D000273E464FF0050A6F
:101BD00072E700273E464FF0060A6DE72B4687E77F
:101BE000B9F1000FD1D14FF02003EFF3118883F347
:101BF0001288BFF36F8F238B23F008032383258B79
:101C0000EA062ED525F01003238305F00705666943
:101C1000218B002EBFF66FAF00232768C4E9003385
:101C200021F0070141F001012183218B01F0070A16
:101C3000AA454FF000097FF43FAF002F9BD041F041
:101C40000801218388F31188BFF36F8F002FC7D05D
:101C50003D68394633465246204605F060FB2F4624
:101C6000F4E7AB067FF51AAF25F02003238305F0D8
:101C70000705FFE64B730000F0B5094E0168024608
:101C80000A2700200B4601311C78355D6D0701D411
:101C90001360F0BD07FB0043A3F13000F2E700BF83
:101CA0008B9400002DE9F84F15469A46D378224AC6
:101CB00012F803B06F2B80460F460BF0030B29D0B0
:101CC00024D8582B0CBF10260A26DDF8289032465F
:101CD000002340463946FEF713FA092AD4B21ED82B
:101CE0003034B045E4B277F1000709F8014D01D373
:101CF000D14511D82B789B0605D5082E15D1AB7888
:101D000043F00803AB704846BDE8F88F03F0F703D3
:101D1000702BD7E70826D8E780460F46D7E7BBF1F8
:101D2000010F0CBF37345734DBE7102EEBD1AB7803
:101D300043F01003E6E700BF8B94000008B50446AB
:101D40004FF02002EFF3118382F31288BFF36F8FFD
:101D500002F0B8FD204601F015FC034805F08FFAAB
:101D600000F0CAFEFCE700BF308C000002F0F2BDBC
:101D70002DE9F047DFF85880044607464FF0010987
:101D800014B93846BDE8F08794FAA4F5B5FA85F59C
:101D900009FA05F32E0108EB05156FEA030A24EA98
:101DA00003042B7B002BEBD058F806301B694BB992
:101DB0004644042273682846196807EA0A0700F0B7
:101DC00059FADDE7284698470028D9D1F0E700BF47
:101DD0001487000030B51049104889B0002206F081
:101DE000E3FA0F4D0F4900220023CDE9062300241A
:101DF0000E23CDE90334CDE901440B4B00944FF49D
:101E00004072284604F0F2F80849284606F0B9F96D
:101E1000204609B030BD00BF311E0000C8060020BA
:101E200000020020C815002021210000598C00006C
:101E3000014804F019BA00BFEC0100202DE9F04779
:101E400080461F480F4605F0C7FD0646002830D0E3
:101E500000252846BDE8F087237B73B12368DB6843
:101E60000BB12046984723681B69D3B963680422E5
:101E70001968204600F0FEF9013610344C45EBD3CA
:101E8000B8F1000FE5D0002DE2D02846FFF770FF33
:101E90000546002FF7D000214FF4A47004F0F2FCA7
:101EA000F1E7204698470028E0D00AFA06F31D43E0
:101EB000E2E7044CDFF8109005464FF0010ADDE739
:101EC000D00800201487000024870000014B53F83D
:101ED000200070474C87000008B5034608462BB128
:101EE000044A136000F07CFC002008BD6FF0150070
:101EF000FBE700BF0400002010B5044C237813B9A1
:101F0000034804F0B1F90123237010BDA011002093
:101F1000EC01002010B50446084805F05DFD5CB1F9
:101F2000BFF35B8F064B53E8001F013943E80012F3
:101F3000002AF8D1BFF35B8F10BD00BFC808002096
:101F4000CC0800200020064BBFF35B8F014653E80E
:101F5000000F43E80012002AF9D1BFF35B8F7047EE
:101F6000C808002070B5FFF7EDFF084C084E054685
:101F7000B44200D370BD63685B792BB123685B68A2
:101F800013B12946204698471034F1E71487000022
:101F90002487000010B5044C0449204605F0ADFB31
:101FA000034B1C6010BD00BF4C01002038870000AF
:101FB000C0080020084A094808B500231370084AE1
:101FC0001360084A4FF400411360FFF785FFBDE836
:101FD0000840FFF7DFBF00BFA1110020D579000046
:101FE000C8080020CC080020014600220148002338
:101FF00005F0A4BB4C010020014805F03DBC00BF2A
:102000004C010020024B0146186805F087BC00BF58
:10201000C0080020014805F0BDBC00BF4C010020F5
:1020200070B5284B187800284BD0FFF7E5FF054620
:1020300090B1BFF35B8F244B53E8001F013943E895
:102040000012002AF8D1BFF35B8F204C204EB4421F
:102050002DD32846FFF7D6FF1E4B1F4C1B68002BC5
:1020600019DD06F09FF94FF47A72A0FB020302FB20
:102070000131C30BD4E9002043EA41439B1A4FEAE4
:10208000D13140F2E93261EB0001934271F100017C
:1020900001D3FFF767FFD4E9003213F57A7342F1F9
:1020A0000002C4E90032BDE87040FFF7B3BF6368C7
:1020B0005B7923B1236829461B6820469847103472
:1020C000C5E770BDA0110020CC08002014870000D7
:1020D00024870000C8080020C006002070B50D4D00
:1020E000297861B90120FFF7A9FE0B4C0B4EB442D1
:1020F00006D3FFF795FF0028FBD101232B7070BD9D
:1021000063685B791BB1236820469B68984710344D
:10211000EDE700BFA1110020148700002487000014
:1021200000212DE9F0470846FFF788FE044648B332
:1021300040F267684FF0000904F0BEFB1A4B1860CC
:1021400030B11A4B1B68092B02DD194804F08CF8DA
:10215000184FDFF85CA0002544B12046FFF708FEC9
:10216000044618B94FF0FF384FF0FF39FFF758FF1A
:10217000064628B9B5B942464B46504604F098F891
:102180003546E9E74FF0FF384FF0FF39D4E72B68C9
:102190009B691BB100221146284698471035BD4265
:1021A000F5D3E8E7044DFAE7C4080020CC08002086
:1021B000EC010020248700001487000013B51848A4
:1021C00005F00AFC174B1B787BB14FF02003EFF3AF
:1021D000118483F31288BFF36F8FFFF721FF84F31D
:1021E0001188BFF36F8F02B010BD0F4B1B68002B1F
:1021F000F9D050B900220023CDE900230B484FF459
:102200000042002304F08EFDEDE70928EBD10748DA
:1022100006F0D6F8064802B0BDE8104004F024B835
:10222000CC080020A1110020C4080020C80600200E
:10223000EC01002010B5064B1B6804469847214668
:10224000A060044805F0F8FABDE81040FFF7B6BFFB
:10225000040000204C010020044A054B9B1AB1EBFE
:10226000D30F34BF52F83100002070479C86000025
:1022700014870000084BC31A10B41B1144680133C3
:10228000237143689A7143681960436801225A7147
:102290005DF8044BFFF730BE148700002DE9F04FC6
:1022A0008FB004AFC1F34A28B8600D4691467B60F9
:1022B0000C0DB8F1000F63D0002607F114034FF0A6
:1022C000040B4FF00A0AC7F80C80C7E907667E6264
:1022D0000193CDF808B0CDF800A007F11C03F96810
:1022E00032464846FFF7C6F9B0F5006F03461CD3E7
:1022F0006C468AB0D9F8041004AB2648C3E905013E
:1023000040F2FF71D9611A464FF400711984224BD3
:1023100042F8103F214833464FF41251FFF7BEFFF9
:10232000A5462C37BD46BDE8F08FC0F30A0804F17E
:102330001700184420F0070080083B60FFF754FEA8
:1023400068F35325044690B13B68154AC7E908363F
:1023500000F1100107F11403F961CDE900A3CDF8F4
:1023600008B0F96807F11C034846FFF783F968F3E2
:1023700053257B68B9682A46204605F063FBD0E701
:1023800004F1170020F007008008FFF72DFE044637
:10239000EDE700BF6E8C000004000001EC86000039
:1023A000197A00002DE9F04F87B0DDE91269DDE907
:1023B000105A04460F4693469846A6B31021CDF80E
:1023C0000090334652460020CDF81490FEF780FF6F
:1023D000014605F117000844144B039104F007046B
:1023E0000BF0070BE40020F0070003EA412344EA66
:1023F0008B1480081C43FFF7F7FD44EA055405469B
:1024000040B13EB10399CDF80090334652461030AA
:10241000FEF75EFF434622463946284607B0BDE830
:10242000F04F05F00FBB3146D3E700BF00FE0F00B1
:102430000EB403B503AB014653F8042B04480193D3
:1024400005F026FB02B05DF804EB03B0704700BF57
:10245000B97A0000CA0605D48B064CBF024903496D
:10246000FFF7E6BF704700BFAE8C0000AD8C0000E8
:102470002DE9F04F8BB09A46DDE916739DF854B004
:102480000693189B199E089204460D460593BBF1CE
:10249000000F00F0858006F00103099306F00803A1
:1024A000079305F0B7FA06F002090246002847D064
:1024B00084492046FFF7BCFF8046B9F1000F08D0E1
:1024C00016F0440F3ED180492A462046FFF7B0FF60
:1024D0008044099B53B17D4B7D4953F82B207D4BA4
:1024E0002046002A08BF1A46FFF7A2FF079B002BD1
:1024F00054D0794B794953F82B202046FFF798FFA9
:102500000546089B2BB176491A462046FFF790FFF7
:102510000544BAF1000F05D0724952462046FFF734
:1025200087FF05444544002F48D1059B002B4ED121
:10253000F30700F1C08031462046FFF78BFFB4E07F
:102540008046BAE7684B18680028C1D0674B4FF443
:102550007A791B68B5FBF3F54FF46161B5FBF0F3D5
:1025600000FB135509FB05F54FF03C0CB3FBF1F2F2
:1025700001FB1231B5FBF0FEB1FBFCF300FB1E5575
:102580000CFB131109FB05F50091B5FBF0F558495B
:10259000CDE901E52046FFF74BFF99E7079DB0E73E
:1025A000BAF1010F06D1002F65D1059B002B7CD01D
:1025B00000250CE0002FF8D04E485DE04E484F4912
:1025C0003B46224604F0F0FD059B002B69D0DFF866
:1025D0004081DFF84091059F3146102F204628BFEB
:1025E0001027FFF737FF4FF0000A554546DC069BE2
:1025F00049461A782046FFF71BFF4FF0010A1AF0F0
:10260000070F03D141462046FFF712FF57453CD93B
:10261000069B494613F80A202046FFF709FF0AF1F6
:10262000010ABAF1100FEAD1354920464FF0000AED
:10263000FFF7FEFE5246069B9A5C324B995C11F006
:10264000970F08BF2E2230492046FFF7F1FE0AF10E
:10265000010ABAF1100F1DD01AF0070F03D141463D
:102660002046FFF7E5FE57455246E4D8414620464E
:10267000FFF7DEFEEBE720485D46A0E74146204637
:10268000FFF7D6FE0AF1010AAFE720492046FFF71F
:10269000CFFEC4E7069B3B440693059BDB1B0593DB
:1026A00099D1BBF1000F7FF443AF20460BB0BDE8DA
:1026B000F04F05F0F4B9074A05492046FFF7B8FE88
:1026C00039E700BFB58C0000B98C00005C870000C2
:1026D00098920000B08C000070870000DE8C000033
:1026E000E48C0000E88C0000D8080020D40800200A
:1026F000C28C0000EF7A0000B97A0000917A0000E5
:10270000F78C00008B940000F98C0000F38C000023
:10271000F58C0000ED8C00002DE9F0410F884B682E
:102720008E6886B005460C469046C7F382175BB1AB
:10273000144A9B1A43F3CF01002920DB2078C0F311
:10274000C200FFF789FD03462146608851F8102B2F
:102750000197C2F34A22002A01EB0204C0F30B10D6
:1027600008BF00210022CDE90408CDE9021400923F
:1027700031462846FFF77CFE06B0BDE8F081002315
:10278000E2E700BF9C86000073B542F20F738B42F4
:1027900028BF0B4605680F4A04460521684604F029
:1027A0007BFD63680C495B6806460B22284605F0F2
:1027B00062F963683246694628465B6805F05BF952
:1027C000636806495B681B22284605F054F902B08D
:1027D00070BD00BFD4930000188D0000FC8C000079
:1027E000074A00210123904206D8064A01B9012375
:1027F0001360054B1860704740085B000121F2E749
:1028000040420F00D4080020D8080020014B0122CC
:102810001A707047A2110020014B00201960704708
:10282000F0080020024B034801221A7005F037B966
:10283000A3110020A08700000148FFF7A5BF00BF3B
:10284000A087000010B5064B18680C46FFF73EFB4A
:1028500021460346BDE8104002480F22184700BF3A
:10286000F0080020A087000010B9074B18707047CF
:10287000064B1B781BB141F2883005F01EBCA4202A
:10288000002103F0FFBF00BFA2110020A311002010
:102890002DE9F843DFF878901C4F80460E4604245B
:1028A00099F8005095B903F0A7F9284632464146F9
:1028B00003F028F9054603F0A9F9E5B101233B70BF
:1028C00099F8003073B93046BDE8F8833246414686
:1028D000002003F017F90546EFE72046FFF7C4FF95
:1028E000651E2C46002003F07DF90028EBD03B78D4
:1028F000002BF2D1E7E73B78002BE4D0013C2046E7
:10290000FFF7B2FF3B78002BCAD1DCE7A211002011
:10291000A3110020014804F083BA00BFB087000073
:1029200038B5044618B90F4B0F485B689847616883
:10293000B1F5683F10D0B1F5680F0DD00B4DA9422D
:102940000AD011F46861206807D00146084805F0F4
:10295000ECFB00232360656038BD142205F05CFDAC
:10296000F9E700BFE0000020548D00002C5F5CA957
:10297000F40D002008B520B34368B3F5683F10D1CB
:1029800001220368BFF35B8F53E8001F002903D1C6
:1029900043E800200028F7D1BFF35B8F0DD1002062
:1029A00008BD094A93420AD000684FF0FF324FF049
:1029B000FF3303F0A3FB0028F1D00448F0E70448FC
:1029C000EEE76FF4E040EBE72C5F5CA9E98FFFFFD7
:1029D000EA8FFFFF08B5D8B14368B3F5683F10D15F
:1029E00000220368BFF35B8F53E8001F012903D166
:1029F00043E800200028F7D1BFF35B8F0BD1002004
:102A000008BD074A934208D0006803F0F1FBF6E7DF
:102A10006FF4E040F4E70348F2E70348F0E700BF53
:102A20002C5F5CA9E98FFFFFEA8FFFFF10B504461A
:102A300018B91D4B1D485B6898476368B3F5683F3C
:102A40002FD0B3F5680F2CD0194A934219D12368BF
:102A500003BB18484FF0FF324FF0FF33214603F01D
:102A600067FA08B923681BB90F4B13485B6898478E
:102A700020681422002105F0CFFC4FF468636360E6
:102A800008E0B3F5683F0DD83A2B03D040F6BA62A0
:102A90009342DED1206805F08DFB636843F03A0372
:102AA000636010BD054AF3E7E0000020548D00008C
:102AB0002C5F5CA9F40D00207A8D00003A00003AEA
:102AC00008B5064906484023142205F020FBBDE85E
:102AD00008400449044804F015BA00BFF408002077
:102AE000F40D0020B8870000CC87000001491022B7
:102AF0000A60704710ED00E072B6404080F3118824
:102B0000BFF36F8FBFF34F8F30BF62B6BFF36F8FCE
:102B1000704700BF72B6494081F31188BFF34F8FF1
:102B200020BF80F3118862B6704700BF2DE9F84FCF
:102B3000804600AF0C46002900F08380E9468AB049
:102B4000D1E90012A3686D4641482E464FF0050AB0
:102B5000C5E90501C5E9072346F810AF3D483246EF
:102B600000234FF42151FFF799FBCD46D4E903121E
:102B70006369AD463848C5F810A0C5E90501C5E947
:102B800007233448324600234FF42151FFF786FBD8
:102B9000CD4688B0E3696A463049C2E9051303238C
:102BA00042F8103F2B48DFF8C0B000234FF4C25169
:102BB000FFF774FB2646CD4600254FF00A0AE9468A
:102BC0008EB0D6E908E0D6E90A136A46C2F81CE0DE
:102BD00005F1010EC2E908E0A81CC2E90A01E91CDE
:102BE000C2E905B5C2E90C1342F810AF1948002339
:102BF00045F240010435FFF751FB102DCD4606F19B
:102C00001006DCD188B0236E6A4615490325C2E957
:102C1000051342F8105F0F4800234FF4C251FFF72D
:102C20003DFBCD4688B0A3696A460E49C2E905134B
:102C300042F8105F074800234FF4C251FFF72EFB04
:102C4000CD462146404602F0E7FFBD46BDE8F88F7D
:102C5000A78D000004870000D68D0000058E0000BF
:102C6000578E0000668E0000148E000040B20028CF
:102C700007DB044A4109012300F01F00834042F8AA
:102C80002130704700E100E040B200280CDB43092E
:102C9000064900F01F0020330122824041F8232022
:102CA000BFF34F8FBFF36F8F704700BF00E100E0AD
:102CB000054B420900F01F0053F82220012303FABC
:102CC00000F01040704700BF00E100E040B2002873
:102CD000A8BF00F1604001F10101B8BF064B4FEA07
:102CE0004111ACBF00F5614000F00F00C9B2B4BFA4
:102CF000195480F80013704714ED00E030BFFFF75F
:102D0000FDBF00BF144A08B5144B22F07F029A6041
:102D1000BFF34F8FBFF36F8FD3F8882022F4700278
:102D2000C3F88820D3F8882042F4A002C3F8882092
:102D30004FF04042C3F83422BFF34F8FBFF36F8F81
:102D40000023E1EE103A03F023F803F01FFE00F039
:102D5000E3FB03F06BF800BF0000000000ED00E0B3
:102D6000094A0A49936809689967094958674B688D
:102D700043F080534B60002383F31188BFF36F8FC0
:102D80009368986F704700BF900F00201089000073
:102D900000ED00E01E498A6882F8BDE04FF0300087
:102DA0001044EFF3098C80E8F01F1EF0100F03D1E0
:102DB00002F17C0080EC108A202080F31288BFF39F
:102DC0006F8F144F4FF000668A698A603E6092F9F7
:102DD000BDE0506F0023536780F311881EF0100F81
:102DE00003D00023E1EE103A03E002F17C0090EC06
:102DF000108AEFF3148323F0040383F31488BFF3E2
:102E00006F8F02F1300090E8F01F8CF30988704753
:102E1000900F002004ED00E01EF0040F0CBFEFF354
:102E20000880EFF30980816911F8021C0229FFD0A4
:102E300001B504F06EFE01BD42F8203C009B42F853
:102E40001C3C019B42F8183C0A49029B42F8143C86
:102E50004FF0807342F8043C21F00101002342F856
:102E6000081C203A43674FF47D430265C0F8BC302C
:102E7000704700BFB3720000114B9B6883421BD1A7
:102E8000EFF30580C0B94FF02002EFF3118182F318
:102E90001288BFF36F8F1A7B22F002021A73EFF3CE
:102EA000148323F0040383F31488BFF36F8F81F33B
:102EB0001188BFF36F8F70476FF01500704700BF28
:102EC000900F00200023E1EE103AEFF3148323F07B
:102ED000040383F31488BFF36F8FBFF36F8F074B27
:102EE0009860104681F30988002163B681F3118848
:102EF000BFF36F8F0022002304F0DBF9900F002056
:102F000001B5EFF30580A0F110004FEAC0000449BD
:102F1000014409C99847BDE801400249084700003B
:102F20001C850000292F0000044B9968986988428D
:102F300003D003494FF080520A607047900F002081
:102F400004ED00E02DE9F04186B0064600AF0D46E5
:102F5000444B7B61022444483C6107F110024FF46A
:102F6000825104F0E5FD414B9B6ADB0678D5404B6E
:102F70003D48C7E9044307F110024FF4825104F0C1
:102F8000D7FD1120394B9B6A1C070BD5394B7B6150
:102F9000022335483B6107F110024FF4825104F0DF
:102FA000C7FD1220314CA36A990723D5E846324B5E
:102FB0007B6102233B6107F110022B484FF48251E1
:102FC00004F0B6FD636BA26A120612D588B06A4699
:102FD0002A492548C2E90513032342F8103F4FF45C
:102FE000C25104F0A5FDC5461EB1A36A23F08003BB
:102FF000A36213201D4B9B6ADE070BD5204B7B6120
:10300000022319483B6107F110024FF4825104F08A
:103010008FFD1420154B9B6A9C060BD5194B7B61C9
:10302000022311483B6107F110024FF4825104F072
:103030007FFD15200D4B9A6AD10658BF9A6A9A6A8D
:10304000920642BF5A6A22F400525A629A6A42F0C9
:10305000FF029A62183700232B70BD46BDE8F0814D
:1030600010208FE7948E00000487000000ED00E040
:10307000AA8E0000DD8E0000F08E0000088F000098
:103080001E8F00003D8F00002DE9F04186B00646FE
:1030900000AF0D46474B7B6102244FF482514648F6
:1030A0003C6107F1100204F043FD444B9B6AD904D4
:1030B0006DD5434B4048C7E9044307F110024FF474
:1030C000825104F035FD17203C4B9B6A1A050BD545
:1030D0003C4B7B61022338483B6107F110024FF4FF
:1030E000825104F025FD1820344CA36A9B0523D59A
:1030F000E846354B7B6102232F483B6107F1100204
:103100004FF4825104F014FDA36BA26A100412D58F
:1031100088B06A462D492848C2E90513032342F8BE
:10312000103F4FF4C25104F003FDC5461EB1A36A1F
:1031300023F40043A3621920204B9B6A59050BD549
:10314000234B7B6102231C483B6107F110024FF4C3
:10315000825104F0EDFC1A20184B9A6AD20518D55A
:103160001C4B7B61022314483B6107F110024FF4B2
:10317000825104F0DDFC1B20104A936A43F47F4324
:103180009362183700232B70BD46BDE8F0811620EE
:103190009AE79B6A9B04EFD50F4B7B61022306489D
:1031A0003B6107F110024FF4825104F0C1FC1C2076
:1031B000E2E700BF6C8F00000487000000ED00E034
:1031C000828F0000DD8E0000938F0000AC8F000026
:1031D000C18F0000DC8F00003D8F000010B586B06D
:1031E000364B3748059304AA02244FF482510494C5
:1031F00004F09EFC334B9B6A9A015DD5324B3048FC
:1032000004AA4FF48251CDE9044304F091FC1E203E
:103210002C4B9B6ADB010AD52C4B2948059304AA49
:1032200002234FF48251049304F082FC1F20254BAB
:103230009B6A1C030AD5264B2148059304AA022346
:103240004FF48251049304F073FC21201D4B9B6AC0
:1032500059030AD51F4B1A48059304AA02234FF4B9
:103260008251049304F064FC2220164B9B6A9A035B
:103270000AD5194B1248059304AA02234FF4825130
:10328000049304F055FC23200E4B9B6ADB030AD504
:10329000124B0B48059304AA02234FF48251049366
:1032A00004F046FC2420074A936A6FEA03436FEA5E
:1032B0001343936206B010BD1D20A9E7F48F0000F0
:1032C0000487000000ED00E00C9000001F9000005B
:1032D00039900000579000007C900000969000000C
:1032E0002DE9F043764B9DB0D3F8048000AF05463E
:1032F000C8F30804002686F31188BFF36F8F02F02D
:103300007F43B3F17F4F0ED102F00C03082B19D18C
:103310006C4BFB6102236C48BB6107F118024FF450
:10332000825104F005FC002635460023FB71E31EA4
:10333000092B00F2A580DFE803F00A989B94A3A371
:10334000A3A3A39E10074CBF0D460126EDE7E94657
:103350005E4BFB614FF0020807F118025A48C7F8AC
:1033600018804FF4825104F0E3FB0023544CFB71AE
:10337000E36A9A070BD5564BC7E90683524807F113
:1033800018024FF4825104F0D3FB002440E0E36ABA
:10339000002B01DA4F4BEFE7E36A5B00F5D54E4BAC
:1033A0004948C7E9068307F118024FF4825104F037
:1033B000BFFB6369AA6943F480736361BFF34F8FF6
:1033C000BFF36F8F636932F8022C23F4807363615B
:1033D000BFF34F8FBFF36F8F4DF602739A4207D042
:1033E000A36ADBB283B3F91D0120FFF7ABFD3AE01E
:1033F00088B02B686A4639493348C2E9051303236C
:1034000042F8103F4FF4C25104F092FB2C68CD46B5
:10341000FB79ABB96822294607F1080004F0EEFFFA
:103420007B6A002E47D0C3F3080222B96FEA532308
:103430006FEA43237B6207F108012046FFF776FB22
:103440007437BD46BDE8F083A36A13F47F4F04D000
:10345000F91D0120FFF718FE05E0A36AB3F5803FD0
:1034600093D3FFF7BBFE0446D2E7F91D0020BCE76B
:10347000F91D0020EEE71A4BFB610223BB617DE7DB
:10348000184A194B18F4F87FE8468AB018BF13465B
:103490006A4616490C48C2E905134FF400731384B9
:1034A000103C134BD4614FF4115142F8103F04F01B
:1034B0003FFBC54669E723F4FF7323F00103B9E737
:1034C00000ED00E0EF900000048700001A9100007A
:1034D0003191000052910000609100007F91000046
:1034E0009B910000D6900000C1900000BF910000A9
:1034F00004000001024A536943F01003536170470E
:1035000000ED00E0EFF30880EFF3098101B57246AA
:10351000FFF7E6FE01BD00BF044800232021C218CA
:103520000133302B82F80013F9D1704700E100E03D
:10353000002080F31488BFF36F8FFEF717FC002084
:103540000D490860BFF34F8F0C4880F3088800F0E6
:103550003DF8202080F3118809484FF4006140189D
:1035600080F30988EFF314800221084380F3148864
:10357000BFF36F8FFFF7C6FB94ED00E00826002035
:10358000C8180020BFF34F8F0549064BCA6802F4E4
:10359000E0621343CB60BFF34F8F00BFFDE700BF76
:1035A00000ED00E00400FA050749D1F8902000235F
:1035B000C2F307221846934200DB7047C1F89830E7
:1035C000C1F8A0000133F6E700ED00E008B572B6DF
:1035D000002383F31388FFF7E7FF144B4FF0FF320C
:1035E000C3F88020C3F88420C3F88820C3F88C2057
:1035F000C3F89020C3F89420C3F89820C3F89C2007
:10360000C3F88021C3F88421C3F88821C3F88C2132
:10361000C3F89021C3F89421C3F89821C3F89C21E2
:1036200062B6BFF34F8FBFF36F8F08BD00E100E0BC
:10363000084B9B6883420BD1EFF3058343B1064BE4
:103640005A6842F080525A605A6A22F400425A6222
:1036500003F038B9900F002000ED00E0024B034A60
:103660000348012100F082B800000420000000207F
:10367000DC8700002DE9F041DFF8C0E09C4600AF98
:10368000154600238B421ADA4468002C4DD0BCF159
:10369000000F1DD0661E344215D06C4688B06A46B5
:1036A0002349C2E90513032342F8103F21480023B0
:1036B0004FF4C251FEF7F2FD6FF01505A5462846FE
:1036C000BD46BDE8F0811F2CE7D902681642E4D15F
:1036D000202C026886685FFA85F814D9B4F1004F8F
:1036E00013D8013CB4FA84F4C4F11F046400B8F1A7
:1036F000070F46EA04060AD96C4688B06A460E4BA4
:10370000C2E90535CFE70824F1E73E24EFE722F0D0
:103710001F022A4342F0100246F00106CEF89850EC
:10372000CEF89C200135CEF8A06001330C30A9E71B
:10373000D6910000FC860000F991000000ED00E049
:10374000044B0522C3F89420BFF34F8FBFF36F8F54
:10375000704700BF00ED00E0BFF35F8F024B002217
:10376000C3F89420704700BF00ED00E010B5034C93
:1037700001232278FFF77EFF207010BDB4110020D6
:1037800014490868082810B521D8FFF7E5FF124C46
:1037900049680022904201F10C0105D10F4B1870CD
:1037A000FFF7CEFF002010BDC4F8982051F80C3C64
:1037B00023F01F03134343F01003C4F89C3051F867
:1037C000043C43F00103C4F8A0300132E2E74FF0BB
:1037D000FF30E8E7E887000000ED00E0B4110020CA
:1037E000014B1860704700BF28000020044A0123E5
:1037F000C2F840354FF080420020C2F8783570475B
:1038000000E0014020B1034B800143F00103184761
:10381000704700BF30870000084B70B5C31A0D46D3
:1038200007499B10044659430648402204F0A4F976
:103830002B4601462046BDE870401847240E002064
:10384000B76DDBB6B884000073B50C4C0C4A40234E
:10385000041B00930D460B460A49A410614306461B
:10386000094804F0B5F9011E05DA30462B4602B0CE
:10387000BDE87040184702B070BD00BF240E0020A4
:103880003B7C0000B76DDBB6B8840000002270B549
:10389000012104461046FFF719FA0F4801F0ECF930
:1038A0000E4B984215D104F069FA26690C4930464E
:1038B00003F05AFD00280BDB012535642469084913
:1038C00004F11C0003F050FD002801DBE56400203A
:1038D00070BD6FF00400FBE7193900000000AD0B6C
:1038E0000888000070B501460C2309484B43C418F2
:1038F000D4E90E56403300221844A26304F029F99B
:103900002DB132462B460348BDE87040184770BDC4
:10391000240E0020B884000010B1012804D07047A4
:10392000034B1B6C5B0701D1FFF7DCBF704700BF87
:10393000240E002008B54FF02003EFF3118183F32C
:103940001288BFF36F8F124A136843F002001060B1
:10395000DA0708D481F31188BFF36F8F0120BDE827
:10396000084004F018BA4FF08043D3F80C24D3F881
:103970000C34DB07EED5074804F0EBF881F311882F
:10398000BFF36F8F0020BDE80840FFF7ABBF00BF5B
:10399000740E0020640E00201FB500220123CDE923
:1039A0000223094ACDF800D06B46CDF804D004F0CC
:1039B0003DF9002805DB4FF480420023684602F001
:1039C00077FC05B05DF804FB5B7C000010B54FF0A0
:1039D0002003EFF3118483F31288BFF36F8F074A3C
:1039E000136823F00201DB07116002D4012004F008
:1039F0000EFA84F31188BFF36F8F10BD740E002090
:103A00002DE9F0413849BFF35B8F0746012251E8A9
:103A1000003F41E800200028F9D1BFF35B8F33B9A4
:103A2000324933484B60CB608A6003F0B0FC7B1EA8
:103A3000012B2BD8012F07D14FF08043D3F81C3432
:103A400003F00303012B21D004F095FB0546F8B9E0
:103A5000284B1B78E3B14FF080430222C3F80823C0
:103A60000646DFF894804FF08044D4F81824D4F848
:103A70001834D20316D503F00303012B01D0012F14
:103A800010D15DB386F31188BFF36F8FBDE8F0816D
:103A90004FF02003EFF3118683F31288BFF36F8F8B
:103AA0000125DEE7ADB13046FFF734F8D4F818351C
:103AB000002BDAD1D4F80421002AD6D0C4F804317E
:103AC000D4F804310123C4F81835C8F88031A36054
:103AD000CBE70021212002F0D5FEE7E74FF080433D
:103AE0000222C3F80423D1E7200E0020100E00208C
:103AF000400E0020C615002000E100E010B5044C87
:103B00002046FDF78FFF2046FFF76AFE002010BD1C
:103B1000153B0000F7B5134E8DF80700044603254A
:103B200002F06AF801220DF10701002002F02EF8E0
:103B3000074602F06BF827B101233370204603B02B
:103B4000F0BD3378002BF9D0013D08D004F013FB11
:103B50000028E5D10021422002F094FEE0E7357014
:103B6000ECE700BFB511002030B54068057B01F0DF
:103B70001F04B2F5001F85B044EA451405D1204664
:103B800001F056FB002005B030BD0025B2F5800FD6
:103B9000CDE9025514D1B3F1007F0CBF04230523F6
:103BA0008DF808300023194602AA204601F05CF97E
:103BB000234B98423DD10121204601F0EBFAE1E789
:103BC000B3F1C06F27D0B3F1007F14BF01230223EC
:103BD0008DF80830836823FA01F111F00101E1D179
:103BE000B2F1A07FDED104F01F03620903F5E07398
:103BF00013D0012A20D1134A52F82330DB07D1D445
:103C00000DF107052946204601F06EFA0E4B984249
:103C100006D00395C6E70323DAE74FF0A042EBE7AF
:103C2000284601F0B1FA064B9842F2D06FF00B0033
:103C3000A9E76FF01500A6E751F82330FFDE00BFBB
:103C40000000AD0B000300500400AD0B10B501F0F7
:103C50008BFA044668B901F05FFA084B98420AD122
:103C60000748214601F03AFA224605210620FFF7CF
:103C70002DF8002010BD6FF00400FBE70000AD0B35
:103C8000853C0000420970B5034602D0012A17D0D6
:103C900070BD0D4E326951680029F9D003F01F0341
:103CA00001250C689D400029F2D08A682A4002D084
:103CB0004B68304698472CB1236821461C46F2E7F2
:103CC000024EE7E72346F8E7E0840000CC840000DA
:103CD0002DE9FF4147683B7B01F01F0545EA43158D
:103CE0000E4628460DF10701144601F0FDF914F4C3
:103CF000403F80460DD1284601F0C0FA3D4B984523
:103D000003D19DF8070001F039FA002004B0BDE8A6
:103D1000F0810023194602AA2846CDE9023301F0BA
:103D2000A3F8344B984214D1804503D19DF8070085
:103D300001F024FAA3034ED540F206332340B3F535
:103D4000837F1AD00DD8062B18D005D8B3B1022B1B
:103D500033D06FF01500D9E7B3F5807FF9D1012397
:103D60000CE040F20222934229D0B3F5407F28D0E4
:103D7000B3F5007FEDD1022300E007238DF8083072
:103D800084F48033C3F30043E0068DF8093054BF58
:103D9000C4F34013032321038DF80A3013D57A6846
:103DA0000123B340C2F80835002202A9284601F0D9
:103DB0001BF9104B9842A8D0CBE70423DEE705237C
:103DC000DCE70323DAE7620341BF01237A68B340EB
:103DD000C2F80C35E8E7E3064FF0000354BFC4F324
:103DE000401403241A4602A928468DF8084001F021
:103DF0003BF8DEE70000AD0B08B543681B68D3F85D
:103E00000805D3F80C1501F0DFFD034B984214BFF1
:103E10006FF00F00002008BD0000AD0BB0B50446E8
:103E200082B0002200AF01210320FEF74FFF63683C
:103E30009D693A1D0021284603F067FF002827DB13
:103E40007B682A681979186800F032F900281FDBAE
:103E500060682369114A00F1080101F05BFC104B16
:103E6000984218D023686C4688B06A460D49C2E96A
:103E700005134FF4007393830B4B42F8103F0B482C
:103E800000234FF4E251FEF709FA6FF00F00A54648
:103E90000837BD46B0BD0020FAE700BFB13E0000C4
:103EA0000000AD0B7B92000003000001E4860000DF
:103EB0000378012B08D0022B08D04BB9054B0B62BD
:103EC00001F1100002F0D0B9034BF8E7034BF6E71D
:103ED000034BF4E70000AD0B0100AE0B0200AE0B8C
:103EE0000100AD0B10B511F001034268046986B002
:103EF0000FD1C1F3420001280ED0022815D00D4A7F
:103F00000592022204920C4804AA4FF48251FEF753
:103F1000C5F96FF0150006E013684FF0CC72C3F8D6
:103F200024250020616206B010BD13684FF0CD62F9
:103F3000F5E700BF9B920000E48600002DE9F04FFA
:103F40008BB000AF06460C469246BB60D0F804909A
:103F5000D0F810804FF0FF324FF0FF33404602F0B0
:103F6000A7F908F11003FB6000220023F868DFF8CE
:103F70001CB102F09DF9484601F010FC00255545A2
:103F800001D3002453E0237A3B6013F0080172D17F
:103F9000122207F11600796004F03EFA3B6860686F
:103FA000B968B86103F001022068797513F0020F57
:103FB00079683A75386216D10AF1FF33AB4202D9FB
:103FC000237D5B0711D5002A55D1202207F114016A
:103FD000484601F00FFC584509D0284B984224D19F
:103FE0006FF00F0423E00A46F0E74022EEE70023DB
:103FF000F8684FF4804202F05BF9034610B36C4658
:1040000088B06A461E4BC2E90535032342F8103FCB
:104010001C4800234FF4C251FEF740F94846A5461C
:1040200001F0CCFB3046FFF7E7FE6FF00404484692
:1040300001F0C4FB404602F017F920462C37BD467C
:10404000BDE8F08FD8F82010594504F10C0410D0C9
:104050006C4688B06A460C48D561C2E90501042166
:1040600042F8101F07484FF40151FEF717F9A54613
:10407000DBE7013583E76FF08504D8E70B00AD0B74
:10408000AD920000E4860000D79200000000AD0B66
:10409000036803F01F025B09026004D0012B034890
:1040A00018BF002070474FF0A04070470003005039
:1040B0002DE9F04FDFF85C9185B01546824600EBA4
:1040C00081014FF00108514503D1002005B0BDE842
:1040D000F08FDAF8003003F07F04C3F343277F2C1E
:1040E0004FEA134308BF4FF0FF34222B00F28F80BA
:1040F000DFE803F01219213B24353B8D8D8D8D3E79
:104100006A8D8D8D8D8D8D8D8D8D8D8D8D8D8D8D02
:104110008D6D7376797C7F00C5F80C45621C6BD180
:104120000AF1040ACFE7C5F81445631CF8D000264D
:104130004FF0000B25E0C5F80845EFE7631CC5F814
:104140000845EDD0002603A80394FFF7A1FF039BC9
:1041500008FA03F3C0F80C354FF0010B11E0661CB0
:10416000C5F80C45DCD00126EDE7C5F81045DCE7C5
:10417000C5F80845002FD8D1601CD1D00026B34621
:104180000627DAF80030019303F40052002A03A84E
:104190001CBF01264FF0000B0394FFF779FF039A31
:1041A000019B00EB8200C3F3C114D0F800273B024F
:1041B00043EA840343EA0B0302EA0902134343EA96
:1041C0004603C0F80037ABE7C5F80C45D2E7C5F8A1
:1041D0002445621CA4D00126AAE7C5F828459DE71E
:1041E000C5F83045F5E7C5F83445F2E7C5F8384578
:1041F000EFE7C5F83C45ECE703A80394FFF748FF59
:10420000039B08FA03F3C0F808350126A4E76FF012
:1042100085005BE7F0F8FCFF074BD3F8082142B1BB
:104220000020C3F80801D3F80821D3F818350B7023
:1042300070474FF0FF30704700200040024BD3F82A
:104240008004C3F8800470470020004030B54B79EB
:10425000012B22D0032B1DD110258B79032B19D1D3
:10426000CB79BBB90A7912B1022A13D10E220B689D
:10427000B3F5164F61D02DD8B3F5165F5FD016D8C1
:10428000B3F5966F5DD00AD8B3F5967F5CD0B3F5E1
:10429000167F5CD06FF085004EE00025DDE7B3F5BA
:1042A000166F57D0B3F5965FF4D1344B39E0B3F5C0
:1042B000E14F52D007D8B3F5615F50D0B3F5964FB8
:1042C000E8D12F4B2DE047F61224A342E2D14FF460
:1042D000000326E0B3F5613F44D011D8B3F5963F13
:1042E00042D008D84DF6C024A3423FD0B3F5614F69
:1042F000D0D1244B15E0B3F5E13FCBD1224B10E0F8
:10430000B3F5612F35D007D8204CA34233D0B3F595
:10431000E12FBFD11E4B04E01E4CA342BAD14FF097
:10432000805304691C482A43C0F82435C0F86C2522
:1043300003C984E80300002030BD184BF1E7184B97
:10434000EFE74FF49E23ECE74FF4A033E9E74FF497
:104350001C33E6E74FF41D23E3E7124BE1E74FF48C
:104360006C13DEE7104BDCE7104BDAE74FF4650324
:10437000D7E70F4BD5E74FF08063D2E700B01300CB
:1043800000A04E0000F0EB0000E0D70190D0030049
:1043900000705F0740420F000020004000509D0069
:1043A0000050270000F0750000B0AF0300903A0104
:1043B00000D0BE0EF8B50E4603F0DDFE1A4D78BBF8
:1043C00064240127BFF35B8F55E8003F002B03D126
:1043D00045E80072002AF7D1BFF35B8F07D0212098
:1043E0000021013C02F04EFA14F0FF04EAD10F4C18
:1043F0000023C4F81C31D4F81C310123A360C4F895
:104400001C654FF47A76D4F81C3123B9012003F0EF
:10441000B3FC013EF7D10123E36000232B60F8BD1C
:1044200001232B60E3E700BF900E00200020004036
:10443000F7B5134C436807690021C4F800151E68DE
:10444000054601AA304603F060FC002815DB019BFD
:10445000326819791868FFF72BFE00280DDB394602
:104460002846FFF7F3FE40B90423C4F80035C4F82A
:104470000801D4F808310123236003B0F0BD00BF68
:104480000020004070B5012383400E4ABFF35B8FCC
:10449000DC4352E8001F01EA040542E80056002E02
:1044A000F7D1BFF35B8F4FF4803282400648C0F8EB
:1044B0000823BFF35F8FBFF36F8F0B4214BF012040
:1044C000002070BD980E00200010014070B40E490D
:1044D000D1E90034D01AC31844F1000422F07F4619
:1044E000C1E90034A6F50013B3F5400F09D2074B1C
:1044F0001B681A0A1B069C19054B42F10005C3E90B
:10450000004570BC02F018BB100700209C0E002074
:104510001807002011B3BFF35B8F0123104A8340BB
:1045200052E800CF4CEA030C42E800C10029F7D161
:10453000BFF35B8F0B4A4FF480338340C2F80433E0
:10454000094BBFF35B8F1B68BFF35B8FC340DB0777
:1045500042BF064B4FF40032C3F80021704700BF42
:10456000980E002000100140940E002000E100E0B1
:104570000D4B1868010A0006BFF35F8F0B4BD3F891
:104580000435181841F10001B3F5801F0AD2084B19
:10459000D3E90023904271EB030303D210F1807042
:1045A00041F10001704700BF9C0E00200010014047
:1045B000180700202DE9F04F85B016461F469DF8DC
:1045C00040A00446FFF75EFF0190FFF7D1FFB04225
:1045D00071EB070354D23E4B301A67EB010198424E
:1045E00071F100014FD23B4B03EB0413D3E90223DB
:1045F0009F4208BF96425ED037494FF4803804F19D
:10460000500508FA04F8AD00C1F848832046ADB261
:1046100003F096FB26F07F4B05F1804504F5A87367
:1046200005F58835DC464FF003090293029A2CF019
:104630007F4341F82230C1F84483D1F80435274A3A
:104640006FF00200C01A604420F07F40904232D9DF
:10465000286868B1D1F804350393A3EB0B0020F070
:104660007F40B0F5000F26D9204603F069FB039B7D
:10467000BAF1000F07D109EB030C09F10109D5E7E5
:10468000BAF1000F09D06FF0150520460199FFF728
:1046900041FF284605B0BDE8F08F0123104ABFF363
:1046A0005B8FA34052E8000F184342E80001002945
:1046B000F8D1BFF35B8F07490E98230101EB041279
:1046C000C8500F9B5360C2E902670025DDE700BFB9
:1046D000010080000007002000100140FDFF7F0066
:1046E000940E00207FB51C4C1C4BC4F80833C4F852
:1046F00048331B4B00254FF0FF304FF0FF31C4F81B
:104700000855C3E902014FF48033C4F80433154B54
:1047100002264FF400320121C4F804631120C3F8CB
:1047200080212A46FEF7D2FA1120FEF79FFA0E4AA0
:104730000123A360236013600C4B0D4A0093CDE965
:10474000015500232846FFF735FF3046FFF758F99B
:10475000284604B070BD00BF0010014003000F00E8
:104760000007002000E100E0980E0020CD4400008A
:10477000FFFF7F002DE9F7432F4CD4F8043399074E
:104780000BD5D4F8043143B12C4A0023C4F80431CA
:10479000D4F80431136801331360D4F80433DA0316
:1047A0002AD5BFF35B8F264B53E8002F22F001017F
:1047B00043E800100028F7D1BFF35B8FD30702D482
:1047C000D4F84031C3B10025C4F84051D4F8403189
:1047D000FFF7CEFE4FF02003EFF3118283F3128830
:1047E000BFF36F8F174BD3E90267B042B94106D2CE
:1047F00082F31188BFF36F8F03B0BDE8F0834FF0F1
:10480000FF384FF0FF39C3E90289D3E900101D607A
:104810004FF48033C4F84833C4F84051D4F84031E1
:1048200082F31188BFF36F8F0029E5D000903246E4
:104830003B4628468847DFE7001001409C0E0020D9
:10484000940E0020000700201FB5431C23D0012830
:1048500023DD134A134B9042D4BF04461C46FFF796
:1048600087FE114B0F49D3E90023801AB0F5000FE2
:1048700028BF002404448C4228BF0C46A2180B49D0
:1048800000914FF00000CDE9010043F10003FFF774
:1048900091FE04B010BD034CE1E70124DFE700BF47
:1048A000FEFF7F00FFFF7F0010070020CD440000C7
:1048B00008B5FFF75DFE024B1B68C01A08BD00BFBC
:1048C0001007002010B5084C012363601120FEF78B
:1048D000DBF9064BC4F80833C4F84833044B4FF4F3
:1048E0000032C3F8802110BD0010014003000F000A
:1048F00000E100E07FB5FDF7F1FB074B05930223D4
:1049000004930648002304AA4FF48251FDF7C6FC25
:104910000020FEF737FE00BF24930000D48600007D
:104920004FF08053D3F83021082A06D1D3F8343120
:10493000052B02D8024AD05C70470020704700BFA8
:1049400047930000024AD2F80034002BFBD0704796
:1049500000E0014010B54FF08053D3F83021082A11
:104960004ED14FF080420021C2F80C11C2F8101154
:10497000C2F8381502F54042D3F80414C2F82015E5
:10498000D3F80814C2F82415D3F80C14C2F828156B
:10499000D3F81014C2F82C15D3F81414C2F830153B
:1049A000D3F81814C2F83415D3F81C14C2F8401503
:1049B000D3F82014C2F84415D3F82414C2F84815CB
:1049C000D3F82814C2F84C15D3F82C14C2F850159B
:1049D000D3F83014C2F85415D3F83414C2F8601563
:1049E000D3F83814C2F86415D3F83C14C2F868152B
:1049F000D3F84014C2F86C15D3F84434C2F87035BB
:104A0000FFF78EFF18B1414B414AC3F88C26FFF7E0
:104A100087FF18B13F4BFB22C3F81825FFF780FF33
:104A200070B14FF080414FF08053D1F8E42ED3F8AD
:104A3000583222F00F0203F00F031343C1F8E43E93
:104A4000FFF76EFF20B1344B4FF40072C3F84026DD
:104A50004FF08053D3F83031082B09D14FF0804309
:104A6000D3F80024D20744BF6FF00102C3F800243A
:104A70002A4AD2F8883043F47003C2F88830BFF372
:104A80004F8FBFF36F8F4FF08053D3F83021082A38
:104A90000ED1D3F83431052B02D8214AD35C3BB177
:104AA0004FF01023D3F808224FF08043C3F8582565
:104AB0004FF01023D3F80022002A03DBD3F804328E
:104AC000002B22DA174901234FF01020C1F80435DA
:104AD0001224FFF737FFC0F80042FFF733FFC0F89A
:104AE0000442FFF72FFF0023C1F80435FFF72AFF28
:104AF000BFF34F8F09490C4BCA6802F4E0621343BD
:104B0000CB60BFF34F8F00BFFDE710BD00500040EA
:104B10004881030000F000400090024000ED00E0FA
:104B20004193000000E001400400FA0530B504683C
:104B3000CCB1BFF35B8FB4FA84F3C3F11F03DBB2D4
:104B400001229A4024EA020250E8005FA54204D103
:104B500040E8002CBCF1000FF6D1BFF35B8FE6D12B
:104B600002480B7030BD0248FCE700BF0000AD0BEF
:104B70000200AD0B10B50368CB40DB0714D4012352
:104B80008B400268BFF35B8F43EA020150E8004F9D
:104B9000944204D140E8001CBCF1000FF6D1BFF3F1
:104BA0005B8FEED1014810BD0148FCE70000AD0B62
:104BB0000400AD0BF7B5044618B1012823D003B0AB
:104BC000F0BD4FF080430222C3F80823C3F804016C
:104BD000D3F804210122DA60064601238DF807305C
:104BE00042F210754FF08047D4B1012CE7D1D7F8CD
:104BF0000C3403F48033AEBB83B3012003F0BCF864
:104C0000013DF4D12AE04FF080430022C3F80803AD
:104C1000C3F80021D3F8002158600DF10706DCE746
:104C2000D7F8183403F480333EB9002BC7D00120E5
:104C300003F0A2F8013DF3D1C1E7D7F8182402F040
:104C400003023260002BBAD09DF80700012803D17F
:104C500003F092F8013DC7D1012CB0D1054B0022E1
:104C60005A71ACE7D7F80C2402F001023270002B25
:104C7000EAD1F3E7A00E0020044B1A7922B90122F1
:104C800018609A800248704702487047A00E0020C2
:104C90000000AD0B0C00AD0B10B54FF08043D3F806
:104CA00000216AB10022C3F80021D3F800210122BB
:104CB000C3F80823114B587910B95A711B689847EB
:104CC0004FF08043D3F8042172B10022C3F80421CD
:104CD000D3F80421D3F81824D3F81824920704D168
:104CE0000122C3F818259A6010BD0222C3F80823D8
:104CF000024BBDE810401B6801201847A00E0020A1
:104D0000036803F01F025B09026004D0012B034813
:104D100018BF002070474FF0A040704700030050BC
:104D2000034A430900F01F00D35C1844C0B2704727
:104D30005893000008B5FFF7F3FF034B083033F832
:104D40001000C0F3401008BD5C00002008B5FFF75C
:104D5000E7FF034B083033F81000C0F3400008BDF4
:104D60005C00002008B5FFF7DBFF034B083033F889
:104D70001000400B08BD00BF5C00002070B5054668
:104D8000FFF7CEFF0C4C08300E4634F81030DA0531
:104D900008D5C3F3432304EBC302284654F8333049
:104DA00052689847A3682BB1E26831462846BDE8AF
:104DB0007040184770BD00BF5C00002010B5FFF7C1
:104DC000AFFF124A083032F81030D9051CD5C3F3B2
:104DD000432123F4F85322F8103002F10E0400208E
:104DE00034F8023F13F4807F03D0C3F34323994286
:104DF0000AD001303028F3D1002342F83130044882
:104E0000BDE81040FFF7B6BE10BD00BF5C0000203B
:104E1000D0000020F0B50146104A114C00200125B9
:104E2000064602F14043A3F5C2439B0805FA03F38B
:104E3000194204D0176817B1166017681843043276
:104E4000A242EED1074BD3F87C2132B10022C3F845
:104E50007C21D3F87C3140F00040F0BD006100407F
:104E600020610040006000402DE9F04385B0054618
:104E700090461E46FFF754FF044609B32846FFF745
:104E800065FF18B12846FFF755FF38BB0023CDE971
:104E900000338DF80E308DF80F300DF10F020B46F8
:104EA00028460DF10E0102F0B4FF4A4A04F1080150
:104EB00032F8113023F0020343F0010322F81130DD
:104EC000B8F1000F31D0284698F80070D8F8049057
:104ED000FFF73CFF20B1B9F1000F1BD03E4826E0A0
:104EE0003C4B04F1080C33F81C1021F02001C904DC
:104EF000C90C23F81C10B9F1000F0BD0032FEDD80B
:104F0000D8F8042092F800E0A7B9344B0EF5A27E41
:104F100043F82E702F4A04F1080132F8113023F0C3
:104F20001C0343EA870322F811304EBB2C4805B01E
:104F3000BDE8F0834FEA8E0202F1804202F5C042E2
:104F400041EA4E31D2F8100520F00300C2F81005F6
:104F5000D2F8100520F44F3020F44070C2F810054C
:104F6000D2F81085280200F47C5040EA080040EA9C
:104F7000074041F0200123F81C10C2F81005C9E7D2
:104F8000D6E900762846FFF719FF002FCED0114D45
:104F9000D5E90023974201D19E4218D011480DF166
:104FA0000F01FFF7C3FD0E4B9842C0D19DF80F20B3
:104FB00045F8327005EBC20308345E6035F81430F2
:104FC00043EA422343F4807325F81430AEE700220D
:104FD000EEE700BF5C0000200400AD0B0060004065
:104FE0000000AD0BD00000202DE9FF41044616461D
:104FF000FFF796FE054631B32046FFF7A7FE20B91E
:105000002046FFF797FE002860D1314F05F10808D0
:1050100037F8183013F01C0F02D04B78012B55D005
:1050200001238DF80F300023CDE900134A1C8B1C9F
:1050300020460DF10F0102F0ECFE37F8183043F076
:10504000030327F818301EB9224804B0BDE8F081E8
:105050002046FFF77BFEC8B31D4F96F800C005F150
:105060000800614637F81050890025F0200501F14D
:105070008041ED0401F5C041ED0C27F810500023EC
:10508000C1F810357278002ADED0D1F81035B67824
:1050900023F4991323F4F853C1F8103512042302B2
:1050A000D1F810E502F4403203F47C531343320587
:1050B00043EA0E0302F4801245EA4C35134345F0EF
:1050C000200527F81050C1F81035BDE70248BCE7AD
:1050D0005C0000200000AD0B0400AD0B014BC3E9E8
:1050E000020170475C00002010B50446FFF722FE65
:1050F00050B12046FFF714FE044B083033F810304F
:1051000003485B0B0B7010BD0248FCE75C000020FD
:105110000000AD0B0400AD0B70B50F4C94F8786037
:10512000BEB90E4D6022314604F1100003F074F94F
:10513000C5F87C610620D5F87C31FDF797FD4FF06E
:105140000043C5F804330648012384F878306367C8
:1051500070BD0448FCE700BF5C0000200060004018
:105160000000AD0B0500AD0B034B93F87800003841
:1051700018BF0120704700BF5C00002001460148B5
:10518000FFF7F8BCCC00002001460148FFF7CEBC79
:10519000CC00002037B50446FFF7CCFD08B320460D
:1051A000FFF7D4FD0546E0B92046FFF7DBFD03B26B
:1051B0009B0003F1804202F5C24203F1804303F5F4
:1051C000C04315601268D3F8102542F00102C3F8FD
:1051D000102521B1144A01238340C2F8043303B0DF
:1051E00030BD2046FFF79CFD104B083033F81030DF
:1051F000C3F38203042B12D0052B12D001A8019413
:10520000FFF77EFD019BD0F81015D94001F0010198
:105210000231204603B0BDE8304002F043BE032116
:10522000F7E70221F5E700BF006000405C000020C6
:1052300010B50446FFF77EFDC0B12046FFF786FD9E
:10524000A0B92046FFF78EFD0B4A01238340C2F828
:10525000083303B29B0003F1804303F5C043D3F846
:10526000102522F00302C3F8102510BD20460021AE
:10527000BDE8104002F016BE0060004073B5044661
:10528000FFF74EFD184E00F1080536F81530DB0724
:1052900027D52046FFF7CCFF2046FFF74BFD40B156
:1052A0002046FFF75FFD114B00F5A270002243F886
:1052B00020202046FFF782FD002301A826F81530A4
:1052C0000194FFF71DFD019B00EB8300084BD0F814
:1052D0000027134043F00203C0F80037054802B02E
:1052E00070BD0548FBE700BF5C0000200060004087
:1052F000F0F8FCFF0000AD0B0400AD0B2DE9F04F02
:10530000644BD3F80403C0B285B040F00040FFF70F
:1053100081FD051E80F2A1804FF0A043D3F8202527
:105320000292C3F82025D3F820280392C3F820283E
:105330000DF108084FF00009574B09EB030B4FE044
:1053400093FAA3FA9BF80040BAFA8AFA4AEA44149C
:105350002046FFF7E5FC514B019408304FEADA0292
:1053600033F810700AF007030120984018F8023053
:1053700023EA000308F8023001A8FFF7C1FC019BF3
:1053800003F5E073B90850F82330C7F38206C3F37E
:10539000014A4B0737462FD520463146FFF7EEFC32
:1053A00001A80194FFF7ACFC019B03F5E0735FFAE1
:1053B0008AFA50F82330C3F301439A4507D10021FC
:1053C000204602F06FFD5146204602F06BFD01A819
:1053D0000194FFF795FC019A01239340C0F8203512
:1053E000D8F80030002BABD108F10408B9F1000F58
:1053F0001DD14FF001099FE7BAF1020F0CD1032133
:10540000204602F04FFD06F00503012BDFD139469F
:105410002046FFF7B3FCDAE70221204602F042FD06
:10542000032EF4D0BAF1030FD1D1022EEEE74FF0E4
:105430000040FFF7EFFC4FF0A0421949D2F82035A9
:105440000293C2F82035D1F8202503921343C1F806
:1054500020257FF46DAF25F00045012415B905B076
:10546000BDE8F08F95FAA5F3B3FA83F304FA03F2DB
:105470009B0003F1804303F5C04325EA0205D3F8FE
:105480001005D3F81015C0F30520C1F30141FFF753
:1054900075FCE3E700600040689300005C000020BA
:1054A0000003005030B500F01F04400911D001285E
:1054B00012D10C4800EB84001B02D0F800570A4CB4
:1054C00043EA82022C4042EA41012143C0F800171E
:1054D00030BD4FF0A040EDE704F5E074002353F831
:1054E0002430FFDE00030050F0F8FCFFCB7B10B44B
:1054F00033B9D1E900420368C3F80845C3F80C2565
:1055000003688A68C3F8242503793C225343064A7A
:10551000D35833B100685DF8044B40F30730FDF712
:10552000A5BB5DF8044B7047A80E002013B53B4B9C
:1055300001930023C0F80431D0F80421C0F82431CD
:10554000D0F82421C0F81C31D0F81C21C0F8083153
:10555000D0F80821C0F800324B6381F82F300123C6
:10556000036291F82D209A4218BF83604B6B8A6AC0
:10557000934204460ED24A6AD35CC0F81C350B68CD
:1055800003B340F286238B608B682548C4F804334C
:1055900002B010BD91F82C3013B10123C361EEE7C6
:1055A0000B6A13F0400F4FF0010316BFC361436154
:1055B00081F82D30E3E7204602F083FC28B1019BFF
:1055C000013B0193019B002BF5DC91F82F305BB977
:1055D0001348019B002BDBDC0023C4F800350523B6
:1055E0001048C4F80035D3E7D4F8C434C4F8C43440
:1055F0008BB10D4A0B4813F0010F18BF104613F082
:10560000020F02F1010218BF104613F0040F074BFE
:1056100018BF1846DDE70348DBE700BFA08601009E
:105620000000AD0B0100AD0B0000AE0B0200AE0B95
:1056300013B5334B01930023C0F80431D0F8042193
:10564000C0F82431D0F82421C0F81C31D0F81C2136
:10565000C0F80831D0F808214B6381F82F308B6AED
:10566000012B044617D10B6A5B0614D40223C4F83D
:1056700000320123236291F82D20022A18BF2360F3
:105680000B688BB140F286238B608B681D48C4F891
:10569000043302B010BD0123E9E7204602F011FCFB
:1056A00028B1019B013B0193019B002BF5DC91F894
:1056B0002F305BB91348019B002BEADC0023C4F8B0
:1056C000003505231048C4F80035E2E7D4F8C434A7
:1056D000C4F8C4348BB10D4A0B4813F0010F18BF46
:1056E000104613F0020F02F1010218BF104613F02A
:1056F000040F074B18BF1846DDE70348DBE700BF80
:10570000A08601000000AD0B0100AD0B0000AE0B48
:105710000200AE0B2DE9F84390F804901C4E0746AA
:105720003C2000FB09F035180C4695F82E1061BBA3
:10573000A96032506B6085F82D1085F8311085F81E
:105740003010CCB1637B85F8383094F80E8085F842
:105750003980B8F1000F0BD120680623032241469F
:10576000FFF7A0FE6068062303224146FFF79AFE7A
:1057700021463846FFF7BAFE3C2303FB096605487D
:10578000012386F82E30BDE8F8830348FBE700BF0D
:10579000A80E00200000AD0B0500AD0B03680279D8
:1057A0000521C3F80015044B3C2101FB0233022202
:1057B00083F82E20704700BFA80E002003680B4A14
:1057C0000179C3F80823D3F8002222F00302C3F8BA
:1057D00000220022C3F80025054B3C2000FB0133CA
:1057E000012183F82E1083F8302070478642040090
:1057F000A80E00202DE9F047314F0479D0F8009031
:105800003C2303FB04730D4693F82D30012B944683
:1058100004D10B78012B06D12A4811E0022B02D1CA
:105820000B78012BF8D13C26274BC9F8083306FB2F
:10583000047696F830302BB1B3682448C9F80433A5
:10584000BDE8F0878CF00403C3F3800386F83030A2
:10585000C6F820C0A846B8E80F0006F10C0EAEE866
:105860000F00D8F80030CEF800306B68B362EB68F8
:1058700073626B78C9F888352B78C4EB041A012B56
:1058800007EB8A0A17D09BB9CCF3401C3C2303FBDF
:1058900004735146484683F82CC0FFF747FE3C236B
:1058A0005C433A193B59002BCAD182F83030C7E724
:1058B0004FF0010CEAE751464846FFF7B9FEEEE724
:1058C000A80E00200500AD0B864204000B00AD0BB6
:1058D000F0B5324C324887B0214602F0F2FA002887
:1058E00059D194F82F70FFB9227B931E012B1BD83E
:1058F000606AA369984217D1E36963626369A3622E
:10590000236A274884F82D70C3F34013032A84F8D0
:105910002C3004D107B0BDE8F040FFF707BE07B058
:10592000BDE8F040FFF784BE1E4E0FCE01AD0FC59F
:1059300033682B6047B31A4AD2F8C434C2F8C4346F
:1059400013F0020106D001238DF80030002384F803
:10595000303007E013F0040209D002238DF8003044
:1059600084F83010D4E900316846984713E013F00A
:10597000010305D003238DF8003084F83020F1E7CF
:1059800004228DF80020E2E7236A8DF800705B079F
:1059900084F83070E6D507B0F0BD00BFA80E002037
:1059A00000300040B40E0020036803F01F025B09C2
:1059B000026004D0012B034818BF002070474FF04D
:1059C000A040704700030050F7B5064602F011FBF7
:1059D000084602F00EFB01A80196FFF7E5FF019BC8
:1059E0002E4D00EB83000C46D0F80037019440F2B6
:1059F0000D612B400B43C0F8003701A8FFF7D4FF1F
:105A0000019B00EB83000127D0F800372B400B43AC
:105A1000C0F80037042002F0AFF9092501A801946D
:105A2000FFF7C2FF019AD0F81035D340DB0715D439
:105A300001A80196FFF7B8FF019B07FA03F3C0F82E
:105A40000C35042002F098F9304602F0D2FA013DFC
:105A5000042002F091F915F0FF05DFD101A80194AF
:105A6000FFF7A2FF019A01239340C0F80C350420F0
:105A700002F082F9204602F0BCFA042002F07CF920
:105A800001A80194FFF790FF019AD0F8103504485F
:105A9000D34003F00103C01A03B0F0BDF0F8FCFFDF
:105AA0000100AD0B08B5124BA8220021184602F0E8
:105AB000B3FC032202610F4942610F4A8161C26156
:105AC0004FF480620262002282624262C262016618
:105AD0000A49416610218166094902670346C26688
